S0100000746573745F44494F2E7372656319
S11300000C942A000C9434000C9434000C943400A6
S11300100C9434000C9434000C9434000C9434008C
S11300200C9434000C9434000C9434000C9434007C
S11300300C9434000C9434000C9434000C9434006C
S11300400C9434000C9434000C9434000C9434005C
S11300500C94340011241FBECFE5D8E0DEBFCDBF21
S11300600E9440010C946D010C9400008130C9F091
S113007028F0823039F18330B1F146C0673008F09E
S113008045C0423008F044C08AB350E09A0102C02F
S1130090220F331F6A95E2F7B901682B6ABB81E02E
S11300A008956730B8F54230B8F587B350E09A0147
S11300B002C0220F331F6A95E2F7B901682B67BBB0
S11300C081E00895673050F5423050F58AB350E02E
S11300D09A0102C0220F331F6A95E2F7B901682B17
S11300E06ABB81E008956730E8F44230E8F48AB3EB
S11300F050E09A0102C0220F331F6A95E2F7B9015A
S1130100682B6ABB81E008958FEF08958EEF089500
S11301108EEF08958EEF08958EEF08958EEF089573
S11301208EEF08958EEF08958EEF0895813039F1A2
S113013030F0823099F1833009F441C051C0673006
S113014008F050C040FD0EC02BB381E090E0AC013C
S113015002C0440F551F6A95E2F7BA016095622305
S11301606BBB08952BB381E090E0AC0102C0440F57
S1130170551F6A95E2F7BA01622B6BBB089567308D
S113018098F588B350E09A0102C0220F331F6A9594
S1130190E2F7B901682B68BB81E00895673030F558
S11301A0423030F585B350E09A0102C0220F331F6C
S11301B06A95E2F7B901682B65BB81E00895673061
S11301C0C8F44230C8F482B350E09A0102C0220F4E
S11301D0331F6A95E2F7B901682B62BB81E0089589
S11301E08FEF08958EEF08958EEF08958EEF0895A2
S11301F08EEF08958EEF08958EEF0895813091F07B
S113020028F08230D9F0833029F130C0683080F58D
S113021029B330E0C90102C0959587956A95E2F744
S113022081700895683030F526B330E0C90102C00A
S1130230959587956A95E2F7817008956830E0F4A2
S113024023B330E0C90102C0959587956A95E2F71A
S113025081700895683090F420B330E0C90102C081
S1130260959587956A95E2F7817008958FEF0895C3
S11302708EEF08958EEF08958EEF08958EEF089512
S113028040E060E080E00E94360041E060E080E011
S11302900E94960041E061E080E00E94360040E068
S11302A061E080E00E949600D1E001C0DC2F60E0B4
S11302B080E00E94FE00C82F8111F8CFDD23B9F33E
S11302C061E080E00E94FE0041E0811140E061E0D5
S11102D080E00E949600DC2FEACFF894FFCF66
S9030000FC
